{
  "address": "0x5cDe11Db288B15fd8db9A9051e2c5B2078f4dEc3",
  "abi": [
    {
      "inputs": [
        {
          "internalType": "address",
          "name": "",
          "type": "address"
        }
      ],
      "name": "count",
      "outputs": [
        {
          "internalType": "uint256",
          "name": "",
          "type": "uint256"
        }
      ],
      "stateMutability": "view",
      "type": "function"
    },
    {
      "inputs": [],
      "name": "increaseCount",
      "outputs": [],
      "stateMutability": "nonpayable",
      "type": "function"
    },
    {
      "inputs": [
        {
          "internalType": "uint256",
          "name": "_interval",
          "type": "uint256"
        }
      ],
      "name": "increaseCountStrict",
      "outputs": [],
      "stateMutability": "nonpayable",
      "type": "function"
    },
    {
      "inputs": [
        {
          "internalType": "address",
          "name": "",
          "type": "address"
        }
      ],
      "name": "lastExecuted",
      "outputs": [
        {
          "internalType": "uint256",
          "name": "",
          "type": "uint256"
        }
      ],
      "stateMutability": "view",
      "type": "function"
    }
  ],
  "transactionHash": "0xcf08e08dbdfdaedb41a5da86f86d2de7eacc970e62ae4d50de3bc7fbd31453e5",
  "args": [],
  "numDeployments": 1,
  "solcInputHash": "442e4670bcaa5098bd71cd41fd7600e4",
  "bytecode": "0x608060405234801561001057600080fd5b50610246806100206000396000f3fe608060405234801561001057600080fd5b506004361061004c5760003560e01c806305d85eda1461005157806348b1e66514610083578063abd1b73d14610098578063de11524c146100a0575b600080fd5b61007161005f3660046101a0565b60006020819052908152604090205481565b60405190815260200160405180910390f35b6100966100913660046101d0565b6100c0565b005b610096610167565b6100716100ae3660046101a0565b60016020526000908152604090205481565b336000908152600160205260409020546100da82826101e9565b421161012c5760405162461bcd60e51b815260206004820152601e60248201527f43616c6c6261636b3a20696e74657276616c206e6f7420656c61707365640000604482015260640160405180910390fd5b33600090815260208190526040812080546001929061014c9084906101e9565b90915550503360009081526001602052604090204290555050565b3360009081526020819052604081208054600192906101879084906101e9565b9091555050336000908152600160205260409020429055565b6000602082840312156101b257600080fd5b81356001600160a01b03811681146101c957600080fd5b9392505050565b6000602082840312156101e257600080fd5b5035919050565b8082018082111561020a57634e487b7160e01b600052601160045260246000fd5b9291505056fea264697066735822122046309a7faeaa0a6a299ff5c9fb1d028a918200635e48545a448c65caa41815f364736f6c63430008120033",
  "devdoc": {
    "kind": "dev",
    "methods": {},
    "version": 1
  },
  "userdoc": {
    "kind": "user",
    "methods": {},
    "version": 1
  },
  "storageLayout": {
    "storage": [
      {
        "astId": 5,
        "contract": "contracts/callbacks/Callback.sol:Callback",
        "label": "count",
        "offset": 0,
        "slot": "0",
        "type": "t_mapping(t_address,t_uint256)"
      },
      {
        "astId": 9,
        "contract": "contracts/callbacks/Callback.sol:Callback",
        "label": "lastExecuted",
        "offset": 0,
        "slot": "1",
        "type": "t_mapping(t_address,t_uint256)"
      }
    ],
    "types": {
      "t_address": {
        "encoding": "inplace",
        "label": "address",
        "numberOfBytes": "20"
      },
      "t_mapping(t_address,t_uint256)": {
        "encoding": "mapping",
        "key": "t_address",
        "label": "mapping(address => uint256)",
        "numberOfBytes": "32",
        "value": "t_uint256"
      },
      "t_uint256": {
        "encoding": "inplace",
        "label": "uint256",
        "numberOfBytes": "32"
      }
    }
  }
}